{
  "contractName": "Machine",
  "abi": [
    {
      "constant": true,
      "inputs": [
        {
          "name": "",
          "type": "uint256"
        }
      ],
      "name": "owners",
      "outputs": [
        {
          "name": "id",
          "type": "uint256"
        },
        {
          "name": "name",
          "type": "string"
        },
        {
          "name": "count",
          "type": "uint256"
        }
      ],
      "payable": false,
      "stateMutability": "view",
      "type": "function"
    },
    {
      "constant": true,
      "inputs": [
        {
          "name": "",
          "type": "address"
        }
      ],
      "name": "verifiers",
      "outputs": [
        {
          "name": "",
          "type": "bool"
        }
      ],
      "payable": false,
      "stateMutability": "view",
      "type": "function"
    },
    {
      "constant": true,
      "inputs": [],
      "name": "ownercount",
      "outputs": [
        {
          "name": "",
          "type": "uint256"
        }
      ],
      "payable": false,
      "stateMutability": "view",
      "type": "function"
    },
    {
      "inputs": [],
      "payable": false,
      "stateMutability": "nonpayable",
      "type": "constructor"
    },
    {
      "constant": false,
      "inputs": [
        {
          "name": "_ownerid",
          "type": "uint256"
        }
      ],
      "name": "verify",
      "outputs": [],
      "payable": false,
      "stateMutability": "nonpayable",
      "type": "function"
    }
  ],
  "bytecode": "0x608060405234801561001057600080fd5b5061005e6040805190810160405280600681526020017f6f776e65723100000000000000000000000000000000000000000000000000008152506100b0640100000000026401000000009004565b6100ab6040805190810160405280600681526020017f6f776e65723200000000000000000000000000000000000000000000000000008152506100b0640100000000026401000000009004565b6101d2565b6002600081548092919060010191905055506060604051908101604052806002548152602001828152602001600081525060016000600254815260200190815260200160002060008201518160000155602082015181600101908051906020019061011c92919061012d565b506040820151816002015590505050565b828054600181600116156101000203166002900490600052602060002090601f016020900481019282601f1061016e57805160ff191683800117855561019c565b8280016001018555821561019c579182015b8281111561019b578251825591602001919060010190610180565b5b5090506101a991906101ad565b5090565b6101cf91905b808211156101cb5760008160009055506001016101b3565b5090565b90565b6103d7806101e16000396000f300608060405260043610610062576000357c0100000000000000000000000000000000000000000000000000000000900463ffffffff168063025e7c27146100675780636c8244871461011b57806372bc1b0e146101765780638753367f146101a1575b600080fd5b34801561007357600080fd5b50610092600480360381019080803590602001909291905050506101ce565b6040518084815260200180602001838152602001828103825284818151815260200191508051906020019080838360005b838110156100de5780820151818401526020810190506100c3565b50505050905090810190601f16801561010b5780820380516001836020036101000a031916815260200191505b5094505050505060405180910390f35b34801561012757600080fd5b5061015c600480360381019080803573ffffffffffffffffffffffffffffffffffffffff169060200190929190505050610290565b604051808215151515815260200191505060405180910390f35b34801561018257600080fd5b5061018b6102b0565b6040518082815260200191505060405180910390f35b3480156101ad57600080fd5b506101cc600480360381019080803590602001909291905050506102b6565b005b6001602052806000526040600020600091509050806000015490806001018054600181600116156101000203166002900480601f0160208091040260200160405190810160405280929190818152602001828054600181600116156101000203166002900480156102805780601f1061025557610100808354040283529160200191610280565b820191906000526020600020905b81548152906001019060200180831161026357829003601f168201915b5050505050908060020154905083565b60006020528060005260406000206000915054906101000a900460ff1681565b60025481565b6000803373ffffffffffffffffffffffffffffffffffffffff1673ffffffffffffffffffffffffffffffffffffffff16815260200190815260200160002060009054906101000a900460ff1615151561030e57600080fd5b60008111801561032057506002548111155b151561032b57600080fd5b600160008281526020019081526020016000206002016000815480929190600101919050555060016000803373ffffffffffffffffffffffffffffffffffffffff1673ffffffffffffffffffffffffffffffffffffffff16815260200190815260200160002060006101000a81548160ff021916908315150217905550505600a165627a7a723058209960f566877413cc6fb0192ca37b04fc1a68ffa4c65b1a9ed90547a2d141be2a0029",
  "source": "pragma solidity ^0.4.24;\n\ncontract Machine{\n\nstruct owner{\nuint id;\nstring name;\nuint count;\n\n}\n\nmapping (address => bool) public verifiers;\n\nmapping(uint => owner) public owners;\nuint public ownercount;\n\nfunction Machine() public {\naddowner(\"owner1\");\naddowner(\"owner2\");\n\n\n}\n\nfunction addowner(string _name) private{\nownercount++;\nowners[ownercount]= owner(ownercount,_name,0);\n\n}\n\nfunction verify(uint _ownerid) public{\nrequire(!verifiers[msg.sender]);\nrequire(_ownerid > 0 && _ownerid <= ownercount);\nowners[_ownerid].count++;\nverifiers[msg.sender] = true;\n}\n\n}",
  "sourcePath": "/home/joseph/minipro/contracts/Machine.sol",
  "compiler": {
    "name": "solc",
    "version": "0.4.24+commit.e67f0147.Emscripten.clang"
  },
  "schemaVersion": "2.0.1",
  "updatedAt": "2018-10-24T06:41:03.482Z"
}